{
  "contractName": "Cats",
  "abi": [
    {
      "constant": true,
      "inputs": [],
      "name": "_initialized",
      "outputs": [
        {
          "name": "",
          "type": "bool"
        }
      ],
      "payable": false,
      "stateMutability": "view",
      "type": "function"
    },
    {
      "constant": true,
      "inputs": [],
      "name": "owner",
      "outputs": [
        {
          "name": "",
          "type": "address"
        }
      ],
      "payable": false,
      "stateMutability": "view",
      "type": "function"
    },
    {
      "inputs": [],
      "payable": false,
      "stateMutability": "nonpayable",
      "type": "constructor"
    },
    {
      "constant": true,
      "inputs": [],
      "name": "getNumberOFCats",
      "outputs": [
        {
          "name": "",
          "type": "uint256"
        }
      ],
      "payable": false,
      "stateMutability": "view",
      "type": "function"
    },
    {
      "constant": false,
      "inputs": [
        {
          "name": "_toSet",
          "type": "uint256"
        }
      ],
      "name": "setNumberOfCats",
      "outputs": [],
      "payable": false,
      "stateMutability": "nonpayable",
      "type": "function"
    }
  ],
  "bytecode": "0x608060405234801561001057600080fd5b5033600560006101000a81548173ffffffffffffffffffffffffffffffffffffffff021916908373ffffffffffffffffffffffffffffffffffffffff1602179055506101f9806100616000396000f3fe608060405234801561001057600080fd5b506004361061004c5760003560e01c8063254fa81a146100515780633072cf601461007f5780638da5cb5b146100a1578063aad621fd146100eb575b600080fd5b61007d6004803603602081101561006757600080fd5b8101908080359060200190929190505050610109565b005b61008761014f565b604051808215151515815260200191505060405180910390f35b6100a9610162565b604051808273ffffffffffffffffffffffffffffffffffffffff1673ffffffffffffffffffffffffffffffffffffffff16815260200191505060405180910390f35b6100f3610188565b6040518082815260200191505060405180910390f35b80600060405180807f4361747300000000000000000000000000000000000000000000000000000000815250600401905090815260200160405180910390208190555050565b600560149054906101000a900460ff1681565b600560009054906101000a900473ffffffffffffffffffffffffffffffffffffffff1681565b60008060405180807f4361747300000000000000000000000000000000000000000000000000000000815250600401905090815260200160405180910390205490509056fea165627a7a723058201eb5aa322a1f105e17d33b8a62025e60604649dfd23179a09f59d09f31d34e640029",
  "source": "pragma solidity >=0.4.22 <0.9.0;\n\nimport\"./Storage.sol\";\n\ncontract Cats is Storage{\n\n    modifier onlyOwner{\n        require(msg.sender == owner);\n        _;\n    }\n    \nconstructor() public{\n    owner = msg.sender;\n}\n\n    function getNumberOFCats()public view returns(uint256){\n        return _uintStorage[\"Cats\"];\n    }\n    function setNumberOfCats(uint256 _toSet)public {\n        _uintStorage[\"Cats\"] = _toSet;\n    }\n}",
  "sourcePath": "/Users/peshangalo/Documents/Bachelor/Ivan of Tech/proxyContract/contracts/Cats.sol",
  "compiler": {
    "name": "solc",
    "version": "0.5.8+commit.23d335f2.Emscripten.clang"
  },
  "schemaVersion": "3.0.16",
  "updatedAt": "2021-03-05T11:51:14.963Z",
  "devdoc": {
    "methods": {}
  },
  "userdoc": {
    "methods": {}
  }
}