{
  "contractName": "CatsUpdated",
  "abi": [
    {
      "constant": true,
      "inputs": [],
      "name": "_initialized",
      "outputs": [
        {
          "name": "",
          "type": "bool"
        }
      ],
      "payable": false,
      "stateMutability": "view",
      "type": "function"
    },
    {
      "constant": true,
      "inputs": [],
      "name": "owner",
      "outputs": [
        {
          "name": "",
          "type": "address"
        }
      ],
      "payable": false,
      "stateMutability": "view",
      "type": "function"
    },
    {
      "inputs": [],
      "payable": false,
      "stateMutability": "nonpayable",
      "type": "constructor"
    },
    {
      "constant": false,
      "inputs": [
        {
          "name": "_owner",
          "type": "address"
        }
      ],
      "name": "initialize",
      "outputs": [],
      "payable": false,
      "stateMutability": "nonpayable",
      "type": "function"
    },
    {
      "constant": true,
      "inputs": [],
      "name": "getNumberOFCats",
      "outputs": [
        {
          "name": "",
          "type": "uint256"
        }
      ],
      "payable": false,
      "stateMutability": "view",
      "type": "function"
    },
    {
      "constant": false,
      "inputs": [
        {
          "name": "_toSet",
          "type": "uint256"
        }
      ],
      "name": "setNumberOfCats",
      "outputs": [],
      "payable": false,
      "stateMutability": "nonpayable",
      "type": "function"
    }
  ],
  "bytecode": "0x608060405234801561001057600080fd5b506100203361002560201b60201c565b61009e565b600560149054906101000a900460ff161561003f57600080fd5b80600560006101000a81548173ffffffffffffffffffffffffffffffffffffffff021916908373ffffffffffffffffffffffffffffffffffffffff1602179055506001600560146101000a81548160ff02191690831515021790555050565b61031b806100ad6000396000f3fe608060405234801561001057600080fd5b50600436106100575760003560e01c8063254fa81a1461005c5780633072cf601461008a5780638da5cb5b146100ac578063aad621fd146100f6578063c4d66de814610114575b600080fd5b6100886004803603602081101561007257600080fd5b8101908080359060200190929190505050610158565b005b6100926101f8565b604051808215151515815260200191505060405180910390f35b6100b461020b565b604051808273ffffffffffffffffffffffffffffffffffffffff1673ffffffffffffffffffffffffffffffffffffffff16815260200191505060405180910390f35b6100fe610231565b6040518082815260200191505060405180910390f35b6101566004803603602081101561012a57600080fd5b81019080803573ffffffffffffffffffffffffffffffffffffffff169060200190929190505050610276565b005b600560009054906101000a900473ffffffffffffffffffffffffffffffffffffffff1673ffffffffffffffffffffffffffffffffffffffff163373ffffffffffffffffffffffffffffffffffffffff16146101b257600080fd5b80600060405180807f4361747300000000000000000000000000000000000000000000000000000000815250600401905090815260200160405180910390208190555050565b600560149054906101000a900460ff1681565b600560009054906101000a900473ffffffffffffffffffffffffffffffffffffffff1681565b60008060405180807f43617473000000000000000000000000000000000000000000000000000000008152506004019050908152602001604051809103902054905090565b600560149054906101000a900460ff161561029057600080fd5b80600560006101000a81548173ffffffffffffffffffffffffffffffffffffffff021916908373ffffffffffffffffffffffffffffffffffffffff1602179055506001600560146101000a81548160ff0219169083151502179055505056fea165627a7a723058209d9f011b446771f13aacad460595134b15f8ac00624dca6a233cc5388e3348520029",
  "source": "pragma solidity ^0.5.2;\n\nimport \"./Storage.sol\";\n\ncontract CatsUpdated is Storage{\n\n    modifier onlyOwner{\n        require(msg.sender == owner);\n        _;\n    }\n \n    constructor() public{\n        initialize(msg.sender);\n    }\n\n    // have to be sure to run it once.\n    function initialize(address _owner) public{\n        require(!_initialized);\n        owner = _owner;\n        _initialized = true;\n    }\n\n    function getNumberOFCats()public view returns(uint256){\n        return _uintStorage[\"Cats\"];\n    }\n    function setNumberOfCats(uint256 _toSet)public onlyOwner{\n        _uintStorage[\"Cats\"] = _toSet;\n    }\n}",
  "sourcePath": "/Users/peshangalo/Documents/Bachelor/Ivan of Tech/proxyContract/contracts/CatsUpdated.sol",
  "compiler": {
    "name": "solc",
    "version": "0.5.8+commit.23d335f2.Emscripten.clang"
  },
  "schemaVersion": "3.0.16",
  "updatedAt": "2021-03-05T14:29:57.043Z",
  "devdoc": {
    "methods": {}
  },
  "userdoc": {
    "methods": {}
  }
}