{
  "contractName": "Proxy",
  "abi": [
    {
      "constant": true,
      "inputs": [],
      "name": "_initialized",
      "outputs": [
        {
          "name": "",
          "type": "bool"
        }
      ],
      "payable": false,
      "stateMutability": "view",
      "type": "function"
    },
    {
      "constant": true,
      "inputs": [],
      "name": "owner",
      "outputs": [
        {
          "name": "",
          "type": "address"
        }
      ],
      "payable": false,
      "stateMutability": "view",
      "type": "function"
    },
    {
      "inputs": [
        {
          "name": "_currentAddress",
          "type": "address"
        }
      ],
      "payable": false,
      "stateMutability": "nonpayable",
      "type": "constructor"
    },
    {
      "payable": true,
      "stateMutability": "payable",
      "type": "fallback"
    },
    {
      "constant": false,
      "inputs": [
        {
          "name": "_newAddress",
          "type": "address"
        }
      ],
      "name": "upgrade",
      "outputs": [],
      "payable": false,
      "stateMutability": "nonpayable",
      "type": "function"
    }
  ],
  "bytecode": "0x608060405234801561001057600080fd5b506040516020806103398339810180604052602081101561003057600080fd5b810190808051906020019092919050505080600660006101000a81548173ffffffffffffffffffffffffffffffffffffffff021916908373ffffffffffffffffffffffffffffffffffffffff160217905550506102a7806100926000396000f3fe6080604052600436106100345760003560e01c80630900f010146101275780633072cf60146101785780638da5cb5b146101a7575b6000600660009054906101000a900473ffffffffffffffffffffffffffffffffffffffff169050600073ffffffffffffffffffffffffffffffffffffffff16600660009054906101000a900473ffffffffffffffffffffffffffffffffffffffff1673ffffffffffffffffffffffffffffffffffffffff1614156100b757600080fd5b60606000368080601f016020809104026020016040519081016040528093929190818152602001838380828437600081840152601f19601f820116905080830192505050505050509050600080825160208401855af43d604051816000823e8260008114610123578282f35b8282fd5b34801561013357600080fd5b506101766004803603602081101561014a57600080fd5b81019080803573ffffffffffffffffffffffffffffffffffffffff1690602001909291905050506101fe565b005b34801561018457600080fd5b5061018d610242565b604051808215151515815260200191505060405180910390f35b3480156101b357600080fd5b506101bc610255565b604051808273ffffffffffffffffffffffffffffffffffffffff1673ffffffffffffffffffffffffffffffffffffffff16815260200191505060405180910390f35b80600660006101000a81548173ffffffffffffffffffffffffffffffffffffffff021916908373ffffffffffffffffffffffffffffffffffffffff16021790555050565b600560149054906101000a900460ff1681565b600560009054906101000a900473ffffffffffffffffffffffffffffffffffffffff168156fea165627a7a7230582016ca48cb9008157f5d2df12e1abe6b1b9ef82d5871303755f35d82e28a45d4610029",
  "source": "pragma solidity ^0.5.2;\n\nimport \"./Storage.sol\";\n\ncontract Proxy is Storage{\n    address currentAddress;\n\n    constructor(address _currentAddress) public {\n        currentAddress = _currentAddress;\n\n    }\n\n    function upgrade (address _newAddress) public {\n        currentAddress = _newAddress;\n    }\n    // fallback function\n    // dont have name, in case someone have called nonexsited function. Then this will be called.\n    function() payable external {\n        address implementation = currentAddress;\n        require(currentAddress != address(0));\n        bytes memory data = msg.data;\n\n    //DELEGATECALL EVERY FUNCTION CALL\n       assembly {\n        let result := delegatecall(gas, implementation, add(data, 0x20), mload(data), 0, 0)\n        let size := returndatasize\n        let ptr := mload(0x40)\n        returndatacopy(ptr, 0, size)\n        switch result\n        case 0 {revert(ptr, size)}\n        default {return(ptr, size)}\n    }\n    }\n}",
  "sourcePath": "/Users/peshangalo/Documents/Bachelor/Ivan of Tech/proxyContract/contracts/Proxy.sol",
  "compiler": {
    "name": "solc",
    "version": "0.5.8+commit.23d335f2.Emscripten.clang"
  },
  "schemaVersion": "3.0.16",
  "updatedAt": "2021-03-05T14:29:57.040Z",
  "devdoc": {
    "methods": {}
  },
  "userdoc": {
    "methods": {}
  }
}